:030000000208965D
:0C089600787FE4F6D8FD75810702082D7C
:04080000AF03AE0292
:10080400E4FDFCC3ED9FEC9E501E5389F043890127
:10081400758CFC758A66C28DD28C308DFDC28CC2FB
:080824008D0DBD00010C80DB0D
:01082C0022A9
:10084600AB07AA06758080120800E4F580AF03AEF8
:04085600020208048E
:10085A00AB07AA06759080120800E4F590AF03AEC4
:04086A00020208047A
:10086E00AB07AA0675A080120800E4F5A0AF03AE90
:04087E000202080466
:10088200AB07AA0675B080120800E4F5B0AF03AE5C
:040892000202080452
:10082D00E4F580F590F5A0F5B07F887E13120846AB
:09083D007FE87E0312088280F0BE
:00000001FF
